:020000040800F2
:1000000000300020990E0008090D0008110D0008AD
:10001000190D0008210D0008290D0008000000003E
:10002000000000000000000000000000310D00088A
:100030003F0D0008000000004D0D00085B0D00089A
:10004000E90E0008E90E0008E90E0008E90E0008B4
:10005000E90E0008E90E0008E90E0008E90E0008A4
:10006000E90E0008E90E0008E90E0008E90E000894
:10007000E90E0008E90E0008E90E0008E90E000884
:10008000E90E0008E90E0008E90E0008E90E000874
:10009000E90E0008E90E0008E90E0008E90E000864
:1000A000E90E0008E90E0008E90E0008E90E000854
:1000B000E90E0008E90E000800000000690D0008C4
:1000C0007D0D00080000000000000000E90E00089F
:1000D00000000000E90E0008E90E0008E90E000823
:1000E000E90E0008E90E0008000000000000000012
:1000F0000000000000000000000000000000000000
:1001000000000000000000000000000000000000EF
:100110000000000000000000E90E0008E90E0008E1
:1001200000000000000000000000000000000000CF
:1001300000000000000000000000000000000000BF
:10014000E90E0008E90E00080000000000000000B1
:10015000000000000000000000000000000000009F
:10016000000000000000000000000000000000008F
:10017000000000000000000000000000000000007F
:0801800000000000E90E000878
:1001880010B5054C237833B9044B13B10448AFF3C9
:1001980000800123237010BD0C0000200000000027
:1001A8001466000808B5034B1BB103490348AFF3B5
:1001B800008008BD00000000100000201466000840
:1001C80080B594B000AF07F1440300221A605A606A
:1001D8009A6007F12C0300221A605A609A60DA606C
:1001E8001A615A613B1D28220021184606F0E1F9E0
:1001F800554B4FF0A0421A60534B00225A60524BA5
:1002080000229A60504B01221A614F4B00225A7605
:100218004D4B002283F820204B4B0022DA624A4BD8
:1002280001229A62484B0022DA60474B0122DA61C8
:10023800454B002283F83020434B04225A61424B3D
:1002480000221A76404B00225A633F4800F0B0FE65
:100258000346002B01D000F029FD00237B6407F141
:1002680044031946384802F061F80346002B01D0D0
:1002780000F01CFD0123FB6201233B630023BB63E9
:1002880000237B630023FB6300233B6407F12C03FB
:1002980019462D4801F072FA0346002B01D000F0F0
:1002A80005FD01237B600123BB6000233B61042320
:1002B800FB610223FB604023BB6201237B620023B6
:1002C80087F82130002387F82030002387F8223070
:1002D8000023BB6100237B613B1D19461A4801F0CE
:1002E8000BFD0346002B01D000F0E0FC0C237B60E3
:1002F8000223BB603B1D1946134801F0FDFC034671
:10030800002B01D000F0D2FC10237B600323BB60DC
:100318003B1D19460C4801F0EFFC0346002B01D0A9
:1003280000F0C4FC11237B600423BB603B1D19460D
:10033800054801F0E1FC0346002B01D000F0B6FCB3
:1003480000BF5037BD4680BD2800002080B590B062
:1003580000AF07F1280300221A605A609A60DA6039
:100368001A615A613B4628220021184606F021F9F5
:100378003F4B404A1A603E4B00225A603C4B0022D9
:100388009A603B4B01221A61394B00225A76384B4E
:10039800002283F82020364B0022DA62344B0122F7
:1003A8009A62334B0022DA60314B0122DA61304B1A
:1003B800002283F830202E4B04225A612C4B002255
:1003C8001A762B4B00225A63294800F0F1FD0346A8
:1003D800002B01D000F06AFC0123BB620123FB6201
:1003E80000237B6300233B630023BB630023FB6381
:1003F80007F1280319461E4801F0C0F90346002BEF
:1004080001D000F053FC01233B6001237B600023F3
:10041800FB600223BB610223BB6040237B62012394
:100428003B6200237B7700233B770023BB770023C5
:100438007B6100233B613B4619460D4801F05CFC9B
:100448000346002B01D000F031FC02233B6002235D
:100458007B603B461946064801F04EFC0346002BDC
:1004680001D000F023FC00BF4037BD4680BD00BF6F
:10047800780000200001005080B58CB000AF786093
:1004880007F11C0300221A605A609A60DA601A6148
:100498007B681B68B3F1A04F46D13F4B1B68013303
:1004A8003D4A13603C4B1B68012B0BD13B4B5B69EE
:1004B8003A4A43F080535361384B5B6903F08053E9
:1004C800BB61BB69354B5B69344A43F40033536104
:1004D800324B5B6903F400337B617B692F4B5B69AB
:1004E8002E4A43F4802353612C4B5B6903F4802329
:1004F8003B613B690123FB6103233B6200237B6271
:1005080007F11C0319464FF0904002F0B1FA02239C
:10051800FB6103233B6200237B6207F11C0319463E
:100528001F4802F0A5FA32E07B681B681D4A934217
:100538002DD1194B1B680133174A1360164B1B68E2
:10054800012B0BD1154B5B69144A43F0805353615F
:10055800124B5B6903F08053FB60FB680F4B5B69D0
:100568000E4A43F4003353610C4B5B6903F40033C8
:10057800BB60BB683023FB6103233B6200237B62C3
:1005880007F11C0319464FF0904002F071FA00BFC2
:100598003037BD4680BD00BFC800002000100240B3
:1005A800000400480001005080B588B000AF07F192
:1005B8000C0300221A605A609A60DA601A61304BA4
:1005C8005B692F4A43F4800353612D4B5B6903F445
:1005D8008003BB60BB682A4B5B69294A43F400333C
:1005E8005361274B5B6903F400337B607B68244BC2
:1005F8005B69234A43F480235361214B5B6903F40D
:1006080080233B603B6800224FF400614FF090402C
:1006180002F0A0FB002220211A4802F09BFB4FF4B5
:100628008E53FB6000233B6100237B6107F10C03C1
:1006380019464FF0904002F01BFA4FF40063FB603C
:1006480001233B6100237B610023BB6107F10C039D
:1006580019464FF0904002F00BFA2023FB6001236B
:100668003B6100237B610023BB6107F10C03194642
:10067800044802F0FDF900BF2037BD4680BD00BF29
:10068800001002400004004880B500AF1B4B1C4A14
:100698001A601A4B40F20B225A60184B40229A609B
:1006A800164B0122DA60154B00221A61134B002207
:1006B8005A61124B00229A61104B0022DA610F4BEB
:1006C80000221A620D4802F05DFB0346002B01D0A0
:1006D80000F0ECFA0021094803F0B0FF0346002BB4
:1006E80001D000F0E3FA0021044803F0F2FF0346CA
:1006F800002B01D000F0DAFA00BF80BDCC0000204A
:100708000054004080B58AB000AF786007F1140348
:1007180000221A605A609A60DA601A617B681B6866
:100728001F4A934237D11F4B5B691E4A43F480230B
:1007380053611C4B5B6903F480233B613B69C02315
:100748007B611223BB610023FB6103233B6204230B
:100758007B6207F114031946134802F089F9114B1B
:10076800DB69104A43F40013D3610E4BDB6903F4D1
:100778000013FB60FB68002200211F2002F0F7F83D
:100788001F2002F010F900220021202002F0EFF8CB
:10079800202002F008F900BF2837BD4680BD00BF01
:1007A80000540040001002400004004880B500AF2B
:1007B80000F098FB00F088F9FFF7F6FEFFF764FFFA
:1007C800FFF7FEFCFFF7C2FD00F0F0FAAC4802F0BC
:1007D80033FC0346002B01D000F068FA0222A94935
:1007E800A74802F0D9FB0346002B01D000F05EFABF
:1007F800A54B1B78DBB2012B06D10221A34800F0E0
:1008080037FEA14B00221A709F4B5B78DBB2012B9D
:100818001AD19E4800F09EFE64219C4800F05AFDC3
:1008280002219A4800F077FF03469AB2984B1A8043
:10083800974B1B889BB2DAB2964B1A70934800F01C
:1008480011FF914B00225A708F4B9B78DBB2012B22
:1008580006D101218D4800F00BFE8B4B00229A70C7
:10086800894BDB78DBB2012B1AD1884800F072FE85
:100878006421864800F02EFD0121844800F04BFFDA
:1008880003469AB2844B1A80834B1B889BB2DAB218
:10089800804B1A707D4800F0E5FE7B4B0022DA7031
:1008A800794B1B79DBB2012B06D101217B4800F083
:1008B800DFFD754B00221A71734B5B79DBB2012B9C
:1008C8001AD1764800F046FE6421744800F002FD13
:1008D8000121724800F01FFF03469AB2704B1A803C
:1008E8006F4B1B889BB2DAB26A4B1A706B4800F0E8
:1008F800B9FE654B00225A71634B9B79DBB2012B21
:1009080006D10221654800F0B3FD5F4B00229A71C1
:100918005D4BDB79DBB2012B1AD1604800F01AFE7F
:1009280064215E4800F0D6FC02215C4800F0F3FE2A
:1009380003469AB25B4B1A805A4B1B889BB2DAB2B9
:10094800544B1A70554800F08DFE4F4B0022DA7157
:100958004D4B1B7ADBB2012B4ED1504800F0FAFD0B
:1009680064214E4800F0B6FC03214C4800F0D3FE49
:1009780003469AB24C4B1A804B4B1B889BB207EE2E
:10098800903AB8EE677ADFED496AC7EE267A9FEDAE
:10099800487A67EE877A474BC3ED007A454BD3ED2B
:1009A800007A9FED457A37EE677ADFED446AC7EE45
:1009B800267AB3EE097A77EE877A3E4BC3ED007A52
:1009C8003C4BD3ED007AFDEEE77A17EE903A1BB276
:1009D8009AB2354B1A80374BD3ED007AFDEEE77AA1
:1009E80017EE903A1BB2DAB22A4B1A702B4800F075
:1009F80039FE254B00221A72234B5B7ADBB2012B9E
:100A080031D1264800F0A6FD6421244800F062FC9C
:100A18000421224800F07FFE03469AB2284B1A8030
:100A2800274B1B889BB207EE903AB8EE677ADFED4A
:100A38001F6AC7EE267A9FED1E7A67EE877A214BEA
:100A4800C3ED007A1F4BD3ED007AFDEEE77A17EE7F
:100A5800903A1BB2DAB20F4B1A70104800F002FE3F
:100A6800094B00225A7202220A49054802F026FA66
:100A78000346002B3FF4B2AE00F018F9AEE600BF13
:100A8800CC0000202C01002020010020780000204C
:100A98003801002030010020360100202800002005
:100AA80032010020340100203A0100200000804576
:100AB80033335340400100203D0AB73F04E78C3BE5
:100AC8003C0100204401002080B596B000AF07F13A
:100AD800300328220021184605F06BFD07F11C039E
:100AE80000221A605A609A60DA601A613B1D00227F
:100AF8001A605A609A60DA601A615A6103233B638C
:100B08004FF4A0237B630023BB6301233B641023C2
:100B18007B640223FB644FF480333B654FF4E0139E
:100B28007B6507F13003184603F020FE0346002BCF
:100B380001D000F0BBF80F23FB6102233B620023C6
:100B48007B624FF48063BB620023FB6207F11C03E6
:100B58000221184604F048FE0346002B01D000F09D
:100B6800A5F8A0237B604FF480737B6100233B6171
:100B78003B1D184605F058F80346002B01D000F03D
:100B880095F800BF5837BD4680BD000080B483B0DB
:100B980000AF7860354B1B78053B0A2B5ED801A265
:100BA80052F823F0E70B0008030C00081F0C00089C
:100BB8003B0C0008650C0008D90B0008F50B000871
:100BC800110C00082D0C0008490C0008570C0008EF
:100BD800274B01221A70254B00221A703FE0244B44
:100BE80001225A70214B00221A7038E0204B012252
:100BF8009A701E4B00221A7031E01D4B0122DA70E8
:100C08001A4B00221A702AE0194B01221A71174B4D
:100C180000221A7023E0164B01225A71134B00224E
:100C28001A701CE0124B01229A71104B00221A70A4
:100C380015E00F4B0122DA710C4B00221A700EE0FE
:100C48000B4B01221A72094B00221A7007E0084B5D
:100C580001225A72054B00221A7000E000BF00BF43
:100C68000C37BD465DF8047B704700BF2C0100209F
:100C78002001002080B485B000AF78600023FB60BD
:100C880007E0094AFB68134400221A70FB68013325
:100C9800FB60FB68012BF4D900BF00BF1437BD46C9
:100CA8005DF8047B704700BF3001002080B400AFBE
:100CB80072B600BF00BFFDE780B483B000AF0F4B32
:100CC8009B690E4A43F0010393610C4B9B6903F047
:100CD80001037B607B68094BDB69084A43F080535A
:100CE800D361064BDB6903F080533B603B6800BF70
:100CF8000C37BD465DF8047B704700BF001002400A
:100D080080B400AF00BFFDE780B400AF00BFFDE7CF
:100D180080B400AF00BFFDE780B400AF00BFFDE7BF
:100D280080B400AF00BFFDE780B400AF00BFBD4690
:100D38005DF8047B704780B400AF00BFBD465DF826
:100D4800047B704780B400AF00BFBD465DF8047BEC
:100D5800704780B500AF00F00BF900BF80BD000000
:100D680080B500AF024802F087F900BF80BD00BF20
:100D7800CC00002080B500AF024802F097F900BF10
:100D880080BD00BFCC00002080B400AF064BD3F874
:100D98008830054A43F47003C2F8883000BFBD4666
:100DA8005DF8047B704700BF00ED00E080B500AF40
:100DB800144B154A1A60134B4FF416425A60114BE4
:100DC80000229A600F4B0022DA600E4B00221A6153
:100DD8000C4B0C225A610B4B00229A61094B0022E2
:100DE800DA61084B00221A62064B00225A62054853
:100DF80005F040F80346002B01D0FFF757FF00BF6E
:100E080080BD00BF480100200044004080B58AB082
:100E180000AF786007F1140300221A605A609A60E4
:100E2800DA601A617B681B68174A934228D1174B0E
:100E3800DB69164A43F40033D361144BDB6903F4CE
:100E480000333B613B69114B5B69104A43F4003343
:100E580053610E4B5B6903F40033FB60FB680C23A2
:100E68007B610223BB610023FB6103233B620723F1
:100E78007B6207F1140319464FF0904001F0F8FD2A
:100E880000BF2837BD4680BD004400400010024026
:100E9800DFF834D0FFF778FF0C480D490D4A0023DE
:100EA80002E0D458C4500433C4188C42F9D30A4A17
:100EB8000A4C002301E013600432A242FBD305F080
:100EC80081FBFFF773FCFEE70030002000000020E4
:100ED8000C0000206C6600080C000020D4010020E3
:100EE800FEE7000080B500AF084B1B68074A43F0D7
:100EF80010031360032001F02FFD0F2000F008F805
:100F0800FFF7DAFE0023184680BD00BF002002402C
:100F180080B582B000AF7860124B1A68124B1B780C
:100F280019464FF47A73B3FBF1F3B2FBF3F31846A7
:100F380001F047FD0346002B01D001230EE07B683A
:100F48000F2B0AD8002279684FF0FF3001F00FFD0F
:100F5800064A7B681360002300E00123184608371F
:100F6800BD4680BD000000200800002004000020CD
:100F780080B400AF064B1B781A46064B1B68134417
:100F8800044A136000BFBD465DF8047B704700BF8C
:100F980008000020D001002080B400AF034B1B687C
:100FA8001846BD465DF8047B704700BFD00100209D
:100FB80080B59AB000AF7860002387F867300023C7
:100FC8003B660023BB607B68002B01D1012372E1E3
:100FD8007B681B69002B7B681B6C03F01003002BDC
:100FE80076D17B681B6C002B52D17B6800225A6437
:100FF8007B680022DA647B6800229A647B6800229E
:1010080083F83C207868FFF737FA7B681B689B6891
:1010180003F08053002B3BD1786801F0B1FA034606
:1010280087F867307B681B6C03F01003002B2FD107
:1010380097F86730002B2BD17B681B6C23F48853FF
:1010480023F0020343F002027B681A647B681B6882
:101058009A687B681B6822F040529A607B681B681C
:101068009A687B681B6842F080529A60944B1B68B0
:10107800944AA2FB03239A0C13469B0013445B007B
:10108800BB6002E0BB68013BBB60BB68002BF9D1C9
:101098007B681B689B6803F08053002B07D07B6834
:1010A8001B689B6803F00053B3F1005F10D17B68A5
:1010B8001B6C23F0120343F010027B681A647B68F0
:1010C8005B6C43F001027B685A64012387F8673040
:1010D8007B681B6C03F01003002B40F0DF8097F84F
:1010E8006730002B40F0DA807B681B689B6803F050
:1010F8000403002B40F0D2807B681B6C23F48173BF
:1011080043F002027B681A646F4BFB657B681B68BF
:10111800B3F1A04F02D16D4BFB6002E04FF0A0434A
:10112800FB607B681B689B6803F00303012B08D1F5
:101138007B681B681B6803F00103012B01D10123A5
:1011480000E00023002B1CD1FB68002B10D0FB68AB
:101158009B6803F00303012B07D1FB681B6803F0AE
:101168000103012B01D1012300E00023002B08D14A
:10117800FB6D9B6823F440327B685B681A43FB6D08
:101188009A607B685B7E5B037A68526B012A02D0A7
:101198004FF4805200E000221A437B68DB681A4350
:1011A8007B689B6813433A6E13433B667B6893F8EE
:1011B8002030012B1BD17B685B7E002B09D17B681B
:1011C8005B6A013B5A043B6E134343F480333B662E
:1011D8000DE07B681B6C23F0220343F020027B6840
:1011E8001A647B685B6C43F001027B685A647B6815
:1011F8009B6A012B07D07B689A6A7B68DB6A13437A
:101208003A6E13433B667B681B689B6803F00C03CC
:10121800002B14D17B681B68DB687A68126823F49A
:10122800804323F00203D3607B681B7E9A037B68AC
:1012380093F830305B0013433A6E13433B667B6888
:101248001B68DA68224B13407A681268396E0B43C0
:10125800D3607B681B69012B0CD17B681B681B6BF7
:1012680023F00F017B68DB695A1E7B681B680A4301
:101278001A6307E07B681B681A6B7B681B6822F09F
:101288000F021A637B6800225A647B681B6C23F088
:10129800030343F001027B681A640AE07B681B6C55
:1012A80023F0120343F010027B681A64012387F8C5
:1012B800673097F8673018466837BD4680BD00BF6D
:1012C8000000002083DE1B43000300500001005093
:1012D80007C0F0FF80B586B000AF786039600023A2
:1012E8003B617B685B69082B02D108237B612EE098
:1012F8005E4BFB60FB689B6803F01F03002B12D159
:101308007B681B68DB6803F00103012B1DD17B6838
:101318001B6C43F020027B681A647B68002283F808
:101328003C2001239DE0FB689B6803F44043002BAD
:101338000BD07B681B6C43F020027B681A647B68C7
:10134800002283F83C2001238BE00C237B61474B70
:101358009B6803F01F03002B04D07B681B68B3F164
:10136800A04F04D17B681B68DB683B6103E04FF04A
:10137800A043DB683B61FFF70FFEB86021E03B68E4
:10138800B3F1FF3F1DD03B68002B07D0FFF704FEE9
:101398000246BB68D31A3A689A4212D27B681B6825
:1013A8001A687B691340002B0BD17B681B6C43F0D8
:1013B80004027B681A647B68002283F83C200323BC
:1013C8004FE07B681B681A687B691340002BD6D0F6
:1013D8007B681B6C43F400727B681A647B681B682B
:1013E800DB6803F44063002B31D13B6903F40053FD
:1013F800002B2CD17B681B681B6803F00803082BA3
:1014080025D17B681B689B6803F00403002B12D16D
:101418007B681B6C23F480727B681A647B681B6C86
:1014280003F48053002B12D17B681B6C43F001023C
:101438007B681A640BE07B681B6C43F020027B68B6
:101448001A647B685B6C43F001027B685A643B69F1
:1014580003F48043002B03D17B681B687A691A6008
:10146800002318461837BD4680BD00BF0003005052
:1014780080B584B000AF786039600023FB737B6867
:1014880093F83C30012B01D102235FE07B680122F5
:1014980083F83C20786801F073F80346FB73FB7B04
:1014A800002B4ED17B6801221A647B681B689A68FE
:1014B8007B681B6822F080429A603B68012B07D149
:1014C8007B681B689A687B681B6842F080429A6058
:1014D8007B681B689A687B681B6842F000429A60C8
:1014E800FFF75AFDB8601CE0FFF756FD0246BB68DF
:1014F800D31A0A2B15D97B681B689B6803F0004335
:10150800B3F1004F0DD17B681B6C23F0120343F03D
:1015180010027B681A647B68002283F83C20012350
:1015280014E07B681B689B6803F00043B3F1004F2D
:10153800DAD07B681B6C23F0030343F001027B685D
:101548001A647B68002283F83C20FB7B184610371E
:10155800BD4680BD80B584B000AF78600023FB73C2
:101568007B681B689B6803F00803002B71D17B68BC
:1015780093F83C30012B01D102236DE07B680122F6
:1015880083F83C20786800F097FF0346FB73FB7BE9
:10159800002B59D17B681B6C23F4405323F00103C3
:1015A80043F480527B681A642D4B9B6803F01F0339
:1015B800002B04D07B681B68B3F1A04F06D17B6871
:1015C8001B6C23F480127B681A6405E07B681B6C33
:1015D80043F480127B681A647B681B6C03F4807385
:1015E800002B02D17B6800225A647B68002283F8B2
:1015F8003C207B681B6860221A607B681B68DB687C
:1016080003F00073002B26D1154B9B6803F01F03D2
:10161800002B10D0124B9B6803F01F03062B0AD037
:101628000F4B9B6803F01F03072B04D07B681B68D4
:10163800B3F1A04F0FD17B681B689A687B681B6861
:1016480042F008029A6006E07B68002283F83C209A
:1016580001E00223FB73FB7B18461037BD4680BDB3
:101668000003005080B584B000AF78600023FB739E
:101678007B6893F83C30012B01D1022347E07B685B
:10168800012283F83C207B681B68DB6803F0007349
:10169800002B2FD16021786800F0D8FF0346FB7338
:1016A800FB7B002B2ED17B681B689B6803F004032F
:1016B800002B18D17B681B6C03F48073002B12D1AC
:1016C800786800F05DFF0346FB73FB7B002B19D1A4
:1016D8007B681B6C23F4885323F0010343F0010259
:1016E8007B681A640EE07B681B6C23F480527B686D
:1016F8001A6407E07B681B6C43F020027B681A645D
:101708000123FB737B68002283F83C20FB7B18468F
:101718001037BD4680BD80B485B000AF78603960B1
:101728000023FB603B68042B09D03B68042B18D8C6
:101738003B68022B0FD03B68032B06D011E07B6877
:101748001B68D3F88C30FB6011E07B681B68D3F80A
:101758008830FB600BE07B681B68D3F88430FB6043
:1017680005E07B681B68D3F88030FB6000BFFB682E
:1017780018461437BD465DF8047B704780B49BB0AB
:1017880000AF78603960002387F867300023BB60BA
:101798007B6893F83C30012B01D10223A1E27B68DE
:1017A800012283F83C207B681B689B6803F00403D4
:1017B800002B40F085823B685B68042B1CD87B6853
:1017C8001B68196B3B685A6813465B0013445B003F
:1017D8001A461F239340DB4319403B6818683B684F
:1017E8005A6813465B0013445B0000FA03F27B68F7
:1017F8001B680A431A6363E03B685B68092B1ED8C1
:101808007B681B68596B3B685A6813465B00134436
:101818005B001E3B1F2202FA03F3DB4319403B68BF
:1018280018683B685A6813465B0013445B001E3B0C
:1018380000FA03F27B681B680A435A6340E03B687E
:101848005B680E2B1ED87B681B68996B3B685A68CF
:1018580013465B0013445B003C3B1F2202FA03F370
:10186800DB4319403B6818683B685A6813465B00BD
:1018780013445B003C3B00FA03F27B681B680A4395
:101888009A631DE07B681B68D96B3B685A681346EE
:101898005B0013445B005A3B1F2202FA03F3DB434D
:1018A80019403B6818683B685A6813465B00134444
:1018B8005B005A3B00FA03F27B681B680A43DA6351
:1018C8007B681B689B6803F00C03002B40F0E580E5
:1018D8003B681B68092B1CD97B681B6899693B68A6
:1018E8001A6813465B0013441E3B072202FA03F3EF
:1018F800DB4319403B6898683B681A6813465B00ED
:1019080013441E3B00FA03F27B681B680A439A6182
:1019180019E07B681B6859693B681A6813465B00C5
:101928001344072202FA03F3DB4319403B68986823
:101938003B681A6813465B00134400FA03F27B689D
:101948001B680A435A613B685A697B681B68DB68F5
:10195800DB0803F003035B0002FA03F33B663B6812
:101968001B69013B032B4FD801A252F823F000BF9B
:1019780089190008AB190008CD190008EF190008EB
:101988007B681B681A6E9C4B13403A681268910674
:101998003A6E0A431A437B681B6842F000421A6693
:1019A8007BE07B681B685A6E934B13403A68126859
:1019B80091063A6E0A431A437B681B6842F000425C
:1019C8005A666AE07B681B689A6E8B4B13403A68CC
:1019D800126891063A6E0A431A437B681B6842F004
:1019E80000429A6659E07B681B68DA6E824B1340A6
:1019F8003A68126891063A6E0A431A437B681B6874
:101A080042F00042DA6648E07B681B681B6E03F010
:101A1800F8423B681B689B069A4207D17B681B68A3
:101A28001A6E7B681B6822F000421A667B681B6886
:101A38005B6E03F0F8423B681B689B069A4207D12D
:101A48007B681B685A6E7B681B6822F000425A66E6
:101A58007B681B689B6E03F0F8423B681B689B061B
:101A68009A4207D17B681B689A6E7B681B6822F0D4
:101A780000429A667B681B68DB6E03F0F8423B689D
:101A88001B689B069A4207D17B681B68DA6E7B68E5
:101A98001B6822F00042DA6600BF7B681B689B68FF
:101AA80003F00303012B08D17B681B681B6803F054
:101AB8000103012B01D1012300E00023002B40F09A
:101AC8000A813B68DB68012B0FD07B681B68D3F861
:101AD800B0103B681B68012202FA03F3DA437B6803
:101AE8001B680A40C3F8B02049E07B681B68D3F83C
:101AF800B0103B681B6801229A407B681B680A4348
:101B0800C3F8B0203B681B68092B1CD97B681B688D
:101B180099693B681A6813465B0013441B3B07220C
:101B280002FA03F3DB4319403B6898683B681A687C
:101B380013465B0013441B3B00FA03F27B681B68E7
:101B48000A439A611BE07B681B6859693B681B68FC
:101B58005A1C13465B001344072202FA03F3DB43C3
:101B680019403B6898683B681B685A1C13465B0021
:101B7800134400FA03F27B681B680A435A611F4B3F
:101B8800FB653B681B68102B05D1FB6D9B6803F454
:101B98000003002B15D03B681B68112B05D1FB6D8A
:101BA8009B6803F08073002B0BD03B681B68122BDB
:101BB80040F09180FB6D9B6803F48003002B40F09C
:101BC8008A807B681B68B3F1A04F02D10C4BFB6085
:101BD80002E04FF0A043FB607B681B689B6803F042
:101BE8000303012B0ED17B681B681B6803F00103FC
:101BF800012B07D1012306E000F0FF83000300500A
:101C0800000100500023002B50D1FB68002B10D09E
:101C1800FB689B6803F00303012B07D1FB681B6873
:101C280003F00103012B01D1012300E00023002B65
:101C38003CD13B681B68102B1DD17B681B68B3F136
:101C4800A04F18D1FB6D9B6843F40002FB6D9A60AE
:101C5800274B1B68274AA2FB03239A0C13469B00B9
:101C680013445B00BB6002E0BB68013BBB60BB6820
:101C7800002BF9D12EE03B681B68112B0BD17B6838
:101C88001B68B3F1A04F06D1FB6D9B6843F08072CF
:101C9800FB6D9A601EE03B681B68122B1AD1FB6D26
:101CA8009B6843F48002FB6D9A6013E07B681B6CB1
:101CB80043F020027B681A64012387F867300AE042
:101CC8007B681B6C43F020027B681A64012387F849
:101CD800673000E000BF7B68002283F83C2097F85B
:101CE800673018466C37BD465DF8047B704700BF07
:101CF8000000002083DE1B4380B49DB000AF7860F5
:101D08003960002387F86F300023FB600023BB662F
:101D18007B6893F83C30012B01D10223FBE27B68FE
:101D2800012283F83C207B681B69002B03D03B68A9
:101D38009B69012B32D13B685B68012B24D13B683E
:101D48001B6A012B0CD03B681B681A023B681B6A94
:101D58001A433B685B6A1343BA6E1343BB6605E0DC
:101D68003B681B681B02BA6E1343BB667B681B6823
:101D7800DA6C9C4B13407A681268B96E0B43D364D3
:101D88007B68BA6E9A6460E07B681B6C43F0200243
:101D98007B681A64012387F86F3056E07B68DB6C38
:101DA800002B21D13B689A697B68DA647B68002242
:101DB8009A643B681B6A012B0ED07B689A6C3B685F
:101DC8009B69591E3B681B6A19433B685B6A0B4356
:101DD8001A437B689A6407E07B689A6C3B689B6946
:101DE800013B1A437B689A647B68996C3B685A6824
:101DF80013465B0013445B0002331F2202FA03F30D
:101E0800DB4319403B6818683B685A6813465B0017
:101E180013445B00023300FA03F341EA03027B68D0
:101E28009A647B68DB6C5A1E7B68DA647B68DB6CBF
:101E3800002B0AD17B681B68DA6C6A4B13407A68FE
:101E4800916C7A6812680B43D3647B681B689B6843
:101E580003F00803002B2DD13B685B7F002B10D1CA
:101E68007B681B68DB6823F440113B689B7F5A053D
:101E78003B681B7F1B051A437B681B680A43DA60B3
:101E880018E07B681B68DB6823F440113B689B7F84
:101E98005A057B681B680A43DA603B681B7F012B85
:101EA80008D17B681B6C43F020027B681A6401230D
:101EB80087F86F307B681B689B6803F00C03002B66
:101EC80040F010813B681B6A012B0CD17B681B68B2
:101ED800DB6823F000713B685B7F5A067B681B68F0
:101EE8000A43DA6014E07B681B68DA687B681B6861
:101EF80022F00072DA603B685B7F012B08D17B68B7
:101F08001B6C43F020027B681A64012387F86F304A
:101F18003B681B68092B1CD97B681B6899693B685F
:101F28001A6813465B0013441E3B072202FA03F3A8
:101F3800DB4319403B6898683B681A6813465B00A6
:101F480013441E3B00FA03F27B681B680A439A613C
:101F580019E07B681B6859693B681A6813465B007F
:101F68001344072202FA03F3DB4319403B689868DD
:101F78003B681A6813465B00134400FA03F27B6857
:101F88001B680A435A613B685A697B681B68DB68AF
:101F9800DB0803F003035B0002FA03F37B663B688C
:101FA8001B69013B032B54D801A252F823F000BF50
:101FB800C91F0008F51F000817200008392000086D
:101FC8007B681B681A6E084B13403A6812689106C2
:101FD8007A6E0A431A437B681B6842F000421A660D
:101FE80080E000BF0020088200F0FF837B681B6848
:101FF8005A6E934B13403A68126891067A6E0A43F8
:102008001A437B681B6842F000425A666AE07B68A4
:102018001B689A6E8A4B13403A68126891067A6E6A
:102028000A431A437B681B6842F000429A6659E0EB
:102038007B681B68DA6E824B13403A681268910617
:102048007A6E0A431A437B681B6842F00042DA66DC
:1020580048E07B681B681B6E03F0F8423B681B680E
:102068009B069A4207D17B681B681A6E7B681B68BF
:1020780022F000421A667B681B685B6E03F0F84228
:102088003B681B689B069A4207D17B681B685A6E9F
:102098007B681B6822F000425A667B681B689B6E4F
:1020A80003F0F8423B681B689B069A4207D17B689D
:1020B8001B689A6E7B681B6822F000429A667B68F0
:1020C8001B68DB6E03F0F8423B681B689B069A426C
:1020D80007D17B681B68DA6E7B681B6822F00042B8
:1020E800DA6600BF7B681B689B6803F00303012B5B
:1020F80008D17B681B681B6803F00103012B01D121
:10210800012300E00023002B40F0FF803B68DB68E0
:10211800012B0FD07B681B68D3F8B0103B681B6895
:10212800012202FA03F3DA437B681B680A40C3F80A
:10213800B02049E07B681B68D3F8B0103B681B6887
:1021480001229A407B681B680A43C3F8B0203B68A9
:102158001B68092B1CD97B681B6899693B681A683E
:1021680013465B0013441B3B072202FA03F3DB43CD
:1021780019403B6898683B681A6813465B0013442B
:102188001B3B00FA03F27B681B680A439A611BE059
:102198007B681B6859693B681B685A1C13465B00BF
:1021A8001344072202FA03F3DB4319403B6898689B
:1021B8003B681B685A1C13465B00134400FA03F281
:1021C8007B681B680A435A611E4B3B663B681B6869
:1021D800102B05D13B6E9B6803F40003002B14D031
:1021E8003B681B68112B05D13B6E9B6803F080731D
:1021F800002B0AD03B681B68122B40F086803B6E90
:102208009B6803F48003002B7FD17B681B68B3F1C4
:10221800A04F02D10C4B3B6102E04FF0A0433B6161
:102228007B681B689B6803F00303012B0ED17B6856
:102238001B681B6803F00103012B07D1012306E08B
:1022480000F0FF8300030050000100500023002B22
:1022580050D13B69002B10D03B699B6803F0030306
:10226800012B07D13B691B6803F00103012B01D146
:10227800012300E00023002B3CD13B681B68102B96
:102288001DD17B681B68B3F1A04F18D13B6E9B68CA
:1022980043F400023B6E9A60224B1B68224AA2FB61
:1022A80003239A0C13469B0013445B00FB6002E077
:1022B800FB68013BFB60FB68002BF9D124E03B681D
:1022C8001B68112B0BD17B681B68B3F1A04F06D19B
:1022D8003B6E9B6843F080723B6E9A6014E03B68EB
:1022E8001B68122B10D13B6E9B6843F480023B6E37
:1022F8009A6009E07B681B6C43F020027B681A64D3
:10230800012387F86F3000E000BF7B68002283F864
:102318003C2097F86F3018467437BD465DF8047B4B
:10232800704700BF0000002083DE1B4380B499B0D3
:1023380000AF78603960002387F85F307B681B68DE
:10234800B3F1A04F02D15A4BBB6002E04FF0A0435B
:10235800BB60BB68002B01D10123A2E07B6893F826
:102368003C30012B01D102239BE07B68012283F8DA
:102378003C207B681B689B6803F00403002B7FD11B
:10238800BB689B6803F00403002B79D1494BBB65FC
:102398003B681B68002B40D0BB6D9B6823F46042F0
:1023A8003B6859687B6893F830305B030B431A43EA
:1023B800BB6D9A607B681B689B6803F00303012B65
:1023C80008D17B681B681B6803F00103012B01D14E
:1023D800012300E00023002B5CD1BB689B6803F05D
:1023E8000303012B07D1BB681B6803F00103012B12
:1023F80001D1012300E00023002B4BD1BB6D9B686A
:1024080023F4716323F00F033A6811683A689268FD
:102418000A431A43BB6D9A603CE0BB6D9B6823F48A
:102428006042BB6D9A607B681B689B6803F003037E
:10243800012B08D17B681B681B6803F00103012B83
:1024480001D1012300E00023002B23D1BB689B6846
:1024580003F00303012B07D1BB681B6803F00103DA
:10246800012B01D1012300E00023002B12D1BB6D09
:102478009B6823F4716323F00F03BA6D936009E03E
:102488007B681B6C43F020027B681A64012387F881
:102498005F3000E000BF7B68002283F83C2097F89B
:1024A8005F3018466437BD465DF8047B704700BF4F
:1024B800000100500003005080B584B000AF786080
:1024C8000023FB607B681B689B6803F00303012BF8
:1024D80008D17B681B681B6803F00103012B01D13D
:1024E800012300E00023002B43D17B681B689A6816
:1024F800224B1340002B0DD07B681B6C43F010025D
:102508007B681A647B685B6C43F001027B685A64E1
:1025180001232FE07B681B689A687B681B6842F080
:1025280001029A60FEF738FDF8601BE0FEF734FD03
:102538000246FB68D31A022B14D97B681B681B68F8
:1025480003F00103012B0DD07B681B6C43F01002D4
:102558007B681A647B685B6C43F001027B685A6491
:10256800012307E07B681B681B6803F00103012B4C
:10257800DCD1002318461037BD4680BD3F000080DF
:1025880080B584B000AF78600023FB607B681B686F
:102598009B6803F00303012B08D17B681B681B6849
:1025A80003F00103012B01D1012300E00023002BDC
:1025B80047D07B681B689B6803F00D03012B0FD184
:1025C8007B681B689A687B681B6842F002029A6005
:1025D8007B681B6803221A60FEF7DEFCF86029E0BE
:1025E8007B681B6C43F010027B681A647B685B6C29
:1025F80043F001027B685A64012323E0FEF7CCFC18
:102608000246FB68D31A022B14D97B681B689B68A7
:1026180003F00103012B0DD17B681B6C43F0100202
:102628007B681A647B685B6C43F001027B685A64C0
:10263800012307E07B681B689B6803F00103012BFB
:10264800DCD0002318461037BD4680BD80B586B063
:1026580000AF7860396000237B610023FB600023B2
:102668003B617B681B689B6803F00C03002B00F040
:102678009B807B681B68DB6803F00073B3F1007F05
:102688002AD17B685B7E012B26D17B681B7E012BC0
:1026980022D10C233B6014E03B69464A93420DD992
:1026A8007B681B6C43F010027B681A647B685B6C68
:1026B80043F001027B685A64012376E03B690133E9
:1026C8003B617B681B681B6803F04003402BE3D128
:1026D8007B681B6840221A603B68602B15D07B68BA
:1026E8001B689B6803F00403042B0ED17B681B68EE
:1026F8009B6803F00203002B07D17B681B689A686C
:102708007B681B6842F010029A603B680C2B15D05E
:102718007B681B689B6803F00803082B0ED17B6855
:102728001B689B6803F00203002B07D17B681B68BA
:102738009A687B681B6842F020029A603B68602BAD
:1027480005D03B686C2B05D10C237B6105E0082381
:102758007B6102E004237B6100BFFEF71DFCF8608B
:102768001BE0FEF719FC0246FB68D31A0B2B14D9A1
:102778007B681B689A687B691340002B0DD07B68C7
:102788001B6C43F010027B681A647B685B6C43F037
:1027980001027B685A64012307E07B681B689A681A
:1027A8007B691340002BDCD1002318461837BD463F
:1027B80080BD00BFFF93090080B485B000AF78608A
:1027C8007B6803F00703FB600C4BDB68BB60BA68EF
:1027D8004FF6FF031340BB60FB681A02BB68134344
:1027E80043F0BF6343F40033BB60044ABB68D36063
:1027F80000BF1437BD465DF8047B704700ED00E06C
:1028080080B400AF044BDB681B0A03F007031846CB
:10281800BD465DF8047B704700ED00E080B483B0EE
:1028280000AF0346FB7197F90730002B0BDBFB79F0
:1028380003F01F02074997F907305B09012000FAE6
:1028480002F241F8232000BF0C37BD465DF8047B37
:10285800704700BF00E100E080B483B000AF0346DA
:102868003960FB7197F90730002B0ADB3B68DAB255
:102878000C4997F907301201D2B20B4483F80023B0
:102888000AE03B68DAB20849FB7903F00F03043B1E
:102898001201D2B20B441A7600BF0C37BD465DF860
:1028A800047B704700E100E000ED00E080B489B0EF
:1028B80000AFF860B9607A60FB6803F00703FB615A
:1028C800FB69C3F10703042B28BF0423BB61FB6921
:1028D8000433062B02D9FB69033B00E000237B612C
:1028E8004FF0FF32BB6902FA03F3DA43BB681A40C0
:1028F8007B699A404FF0FF317B6901FA03F3D943B2
:102908007B680B40134318462437BD465DF8047BAB
:102918007047000080B582B000AF78607B68013BEB
:10292800B3F1807F01D301230FE00A4A7B68013BA2
:1029380053600F214FF0FF30FFF78EFF054B002249
:102948009A60044B07221A60002318460837BD46D0
:1029580080BD00BF10E000E080B582B000AF7860B5
:102968007868FFF729FF00BF0837BD4680BD80B5EE
:1029780086B000AF0346B9607A60FB7300237B61C1
:10298800FFF73EFF78617A68B9687869FFF78EFFCC
:10299800024697F90F3011461846FFF75DFF00BF52
:1029A8001837BD4680BD80B582B000AF0346FB71C5
:1029B80097F907301846FFF731FF00BF0837BD46C3
:1029C80080BD80B582B000AF78607868FFF7A2FF5D
:1029D800034618460837BD4680BD80B584B000AFB1
:1029E80078600023FB737B6893F82130022B05D0B5
:1029F8007B6804229A630123FB7327E07B681B68CA
:102A08001A687B681B6822F00E021A607B681B68D4
:102A18001A687B681B6822F001021A607B681A6CCE
:102A28007B68DB6B012101FA02F25A607B680122A4
:102A380083F821207B68002283F820207B685B6B69
:102A4800002B03D07B685B6B78689847FB7B184644
:102A58001037BD4680BD80B483B000AF78607B6816
:102A680093F8213018460C37BD465DF8047B704753
:102A780080B487B000AF7860396000237B614EE195
:102A88003B681A6801217B6901FA03F31340FB6074
:102A9800FB68002B00F040813B685B6803F0030390
:102AA800012B05D03B685B6803F00303022B30D190
:102AB8007B689B683B617B695B00032202FA03F336
:102AC800DB433A6913403B613B68DA687B695B002A
:102AD80002FA03F33A6913433B617B683A699A60E7
:102AE8007B685B683B6101227B6902FA03F3DB4385
:102AF8003A6913403B613B685B681B0903F00102BC
:102B08007B6902FA03F33A6913433B617B683A69CC
:102B18005A603B685B6803F00303032B17D07B689C
:102B2800DB683B617B695B00032202FA03F3DB434A
:102B38003A6913403B613B689A687B695B0002FA1B
:102B480003F33A6913433B617B683A69DA603B688F
:102B58005B6803F00303022B23D17B69DA087B68E7
:102B6800083253F822303B617B6903F007039B006E
:102B78000F2202FA03F3DB433A6913403B613B68D7
:102B88001A697B6903F007039B0002FA03F33A69A9
:102B980013433B617B69DA087B680832396943F87B
:102BA80022107B681B683B617B695B00032202FA89
:102BB80003F3DB433A6913403B613B685B6803F00E
:102BC80003027B695B0002FA03F33A6913433B6132
:102BD8007B683A691A603B685B6803F44033002BF2
:102BE80000F09A80554B9B69544A43F00103936166
:102BF800524B9B6903F00103BB60BB68504A7B6979
:102C08009B08023352F823303B617B6903F00303CE
:102C18009B000F2202FA03F3DB433A6913403B613E
:102C28007B68B3F1904F13D07B68464A93420DD02E
:102C38007B68454A934207D07B68444A934201D156
:102C4800032306E0052304E0022302E0012300E059
:102C580000237A6902F00302920093403A69134311
:102C68003B6137497B699B0802333A6941F8232065
:102C7800374B9B683B61FB68DB433A6913403B6118
:102C88003B685B6803F48013002B03D03A69FB6848
:102C980013433B612E4A3B6993602D4BDB683B61D4
:102CA800FB68DB433A6913403B613B685B6803F4AC
:102CB8000013002B03D03A69FB6813433B61244A95
:102CC8003B69D360224B5B683B61FB68DB433A6935
:102CD80013403B613B685B6803F40033002B03D06F
:102CE8003A69FB6813433B61194A3B695360184BC7
:102CF8001B683B61FB68DB433A6913403B613B68F7
:102D08005B6803F48033002B03D03A69FB681343F4
:102D18003B610F4A3B6913607B6901337B613B6808
:102D28001A687B6922FA03F3002B7FF4A9AE00BF6F
:102D380000BF1C37BD465DF8047B70470010024099
:102D4800000001400004004800080048000C00484A
:102D58000004014080B483B000AF78600B467B80EC
:102D680013467B707B78002B03D07A887B689A6146
:102D780002E07A887B689A6200BF0C37BD465DF82E
:102D8800047B704780B582B000AF78607B68002B09
:102D980001D101238DE07B6893F84130DBB2002B31
:102DA80006D17B68002283F840207868FDF7AAFCEA
:102DB8007B68242283F841207B681B681A687B683B
:102DC8001B6822F001021A607B685A687B681B68DE
:102DD80022F070621A617B681B689A687B681B68BE
:102DE80022F400429A607B68DB68012B07D17B687C
:102DF8009A687B681B6842F400429A6006E07B6828
:102E08009A687B681B6842F404429A607B68DB68B6
:102E1800022B08D17B681B685A687B681B6842F4E0
:102E280000625A6007E07B681B685A687B681B6809
:102E380022F400625A607B681B685B687A681268D3
:102E480043F0007343F4004353607B681B68DA68FF
:102E58007B681B6822F40042DA607B681A697B6829
:102E68005B6942EA03017B689B691A027B681B68FD
:102E78000A43DA607B68D9697B681A6A7B681B68D1
:102E88000A431A607B681B681A687B681B6842F0F3
:102E980001021A607B6800225A647B68202283F84A
:102EA80041207B6800221A637B68002283F8422055
:102EB800002318460837BD4680BD000080B584B0A1
:102EC80000AFF860B9601346FB80FB6893F84130A7
:102ED800DBB2202B56D1FB6893F84030012B01D18F
:102EE800022350E0FB68012283F84020FB6821227E
:102EF80083F84120FB68202283F84220FB680022E7
:102F08005A64FB681B685A68FB681B6822F4004215
:102F18005A60FB68BA685A62FB68FA885A85FB6887
:102F28005B8D9AB2FB681A85FB68194ADA62FB68FE
:102F3800184A5A63FB681B6AB3F5003F17D1FB6850
:102F48005B6A1A78FB681B689A62FB685B6A5A1CA2
:102F5800FB685A62FB685B8D9BB2013B9AB2FB68C7
:102F68005A85FB681B8D013B9AB2FB681A85FB6882
:102F7800002283F8402048F20101F86801F07CFA49
:102F8800002300E0022318461037BD4680BD00BF6D
:102F98000000FFFF1332000880B584B000AFF8606E
:102FA800B9601346FB80FB6893F84130DBB2202BF5
:102FB80039D1FB6893F84030012B01D1022333E06B
:102FC800FB68012283F84020FB68222283F8412015
:102FD800FB68202283F84220FB6800225A64FB68C1
:102FE8001B685A68FB681B6822F400425A60FB6839
:102FF800BA685A62FB68FA885A85FB685B8D9AB290
:10300800FB681A85FB680A4ADA62FB68094A5A6350
:10301800FB68002283F8402048F20201F86801F0BA
:103028002BFA002300E0022318461037BD4680BD66
:103038000000FFFF1332000880B582B000AF78604F
:103048007B6893F84130DBB2202B0DD17B682822B6
:1030580083F841207B68074A5A634FF40041786837
:1030680001F00AFA002300E0022318460837BD469B
:1030780080BD00BF1332000880B584B000AF78600F
:103088007B681B689B69FB607B681B681B68BB606F
:103098007B685B6B002B05D07B685B6BBA68F96853
:1030A8007868984700BF1037BD4680BD80B586B0A8
:1030B80000AF78607B681B689B697B617B681B68D5
:1030C8001B683B617B6903F48073002B0FD03B695D
:1030D80003F08003002B0AD07B685B6C43F001028D
:1030E8007B685A647B681B684FF48072DA617B697D
:1030F80003F48063002B0FD03B6903F08003002B9F
:103108000AD07B685B6C43F008027B685A647B6872
:103118001B684FF48062DA617B6903F40073002B4B
:103128000FD03B6903F08003002B0AD07B685B6CEF
:1031380043F002027B685A647B681B684FF4007294
:10314800DA617B685B6CFB60FB6803F00B03002BA8
:1031580003D0F968786801F003F800BF1837BD4656
:1031680080BD80B483B000AF786000BF0C37BD4627
:103178005DF8047B704780B483B000AF786000BF0F
:103188000C37BD465DF8047B704780B483B000AF50
:1031980078600B46FB7013463B8000BF0C37BD467A
:1031A8005DF8047B704780B483B000AF786000BFDF
:1031B8000C37BD465DF8047B704780B483B000AF20
:1031C800786000BF0C37BD465DF8047B704780B45B
:1031D80083B000AF786000BF0C37BD465DF8047B54
:1031E800704780B483B000AF786000BF0C37BD462D
:1031F8005DF8047B704780B483B000AF786000BF8F
:103208000C37BD465DF8047B704780B586B000AFCB
:10321800F860B9607A60FB68DB6A7B61BB683B6118
:10322800FB6893F84030012B01D10223E2E0FB68F0
:10323800012283F840203B6903F02003002B09D0CA
:103248007B6803F02003002B04D03969F86800F08C
:10325800CFFDCAE03B6903F01003002B4BD07B681D
:1032680003F01003002B46D0FB685B8D9BB2002B4C
:1032780028D1FB6893F84130DBB2282B08D17B6951
:10328800B3F1007F04D13969F86800F015FF31E027
:10329800FB6893F84130DBB2292B0ED17B6913F51B
:1032A800803F0AD0FB681B681022DA61F86801F0D9
:1032B8006EF8F86800F078FC1CE0FB681B681022C8
:1032C800DA618FE0FB681B681022DA61FB685B6CCF
:1032D80043F00402FB685A647B69002B03D07B69C6
:1032E800B3F1807F7ED1FB685B6C1946F86800F00B
:1032F80037FF77E076E03B6903F00403002B2FD01B
:103308007B6803F00403002B2AD0FB685B8D9BB21B
:10331800002B18D0FB681B685A6AFB685B6AD2B23C
:103328001A70FB685B6A5A1CFB685A62FB681B8D43
:10333800013B9AB2FB681A85FB685B8D9BB2013B27
:103348009AB2FB685A85FB685B8D9BB2002B4BD108
:103358007B6913F5803F47D0F86800F025FC43E00F
:103368003B6903F00803002B09D07B6803F00803CE
:10337800002B04D03969F86800F055FB35E03B694B
:1033880003F00203002B30D07B6803F00203002B0C
:103398002BD0FB685B8D9BB2002B18D0FB685B6A57
:1033A8001A78FB681B689A62FB685B6A5A1CFB68A0
:1033B8005A62FB685B8D9BB2013B9AB2FB685A85E7
:1033C800FB681B8D013B9AB2FB681A850DE07B698F
:1033D800B3F1807F02D07B69002B06D1F86800F03A
:1033E800E3FB02E000BF00E000BFFB68002283F8B7
:1033F8004020002318461837BD4680BD80B588B0E8
:1034080002AFF860B9607A60FB6893F84030012B2E
:1034180001D10223E7E0FB68012283F84020BB6862
:1034280003F01003002B16D07B6803F01003002B69
:1034380011D0FB681B681022DA61FB685B6C43F0F3
:103448000402FB685A642021F86801F015F8F8684E
:1034580000F09DFFC2E0BB6803F08003002B7FD023
:103468007B6803F04003002B7AD0FB681B681A685E
:10347800FB681B6822F040021A60FB685B8D9BB2F8
:10348800002B5CD0FB681B685B689BB2C3F3090325
:103498007B82FB685B8D9BB2FF2B14D9FB681B6892
:1034A8009B691B0CDBB203F00103DBB2012B03D1D8
:1034B800FB6801221A8502E0FB68FF221A854FF09B
:1034C80080737B6110E0FB685B8D9AB2FB681A859C
:1034D800FB68DB6A13F5803F03D0FB68DB6A7B611E
:1034E80002E04FF000737B61FB681B8DDAB2798ACA
:1034F800002300937B69F86800F08CFFFB685B8D04
:103508009AB2FB681B8DD31A9AB2FB685A85FB687E
:1035180093F84130DBB2222B08D1FB681B681A688C
:10352800FB681B6842F400421A6057E0FB681B689E
:103538001A68FB681B6842F480421A604EE0FB6818
:103548001B685B6803F00073B3F1007F03D0F86871
:1035580000F0EDFA42E04021F86800F001FE3DE09D
:10356800BB6803F04003002B28D07B6803F04003BE
:10357800002B23D0FB685B8D9BB2002B19D1FB6815
:103588001B685B6803F00073B3F1007F25D0FB680C
:10359800DB6A13F5803F08D1FB681B685A68FB6833
:1035A8001B6842F480425A6017E0F86800F0BFFADE
:1035B80013E04021F86800F0D3FD0EE0BB6803F08B
:1035C8002003002B0AD07B6803F02003002B05D0D2
:1035D800B968F86800F044FB00E000BFFB6800220F
:1035E80083F84020002318461837BD4680BD0000E8
:1035F80080B588B002AFF860B9607A60904B7B61A3
:10360800FB6893F84030012B01D102232FE1FB68BE
:10361800012283F84020BB6803F01003002B16D06A
:103628007B6803F01003002B11D0FB681B68102285
:10363800DA61FB685B6C43F00402FB685A64202182
:10364800F86800F019FFF86800F0A1FE0AE1BB680D
:1036580003F00203002B0ED07B6803F00203002B5B
:1036680009D0FB681B68FA68126D9A62FB684FF014
:10367800FF321A65F6E0BB6803F08003002B6DD0BB
:103688007B6803F04003002B68D00121F86800F044
:1036980077FF1021F86800F0EFFEFB685B8D9BB2A6
:1036A800002B56D0FB685B8D9BB2FF2B1ED9FB68A5
:1036B8001B689B691B0CDBB203F00103DBB2012B17
:1036C80003D1FB6801221A8502E0FB68FF221A85F4
:1036D800FB68DB6C99B2FB681B8DDAB200230093A0
:1036E8004FF08073F86800F095FE11E0FB685B8D81
:1036F8009AB2FB681A85FB68DB6C99B2FB681B8D74
:10370800DAB2002300934FF00073F86800F082FEED
:10371800FB685B8D9AB2FB681B8DD31A9AB2FB6863
:103728005A85FB6893F84130DBB2222B08D1FB683D
:103738001B681A68FB681B6842F400421A6091E033
:10374800FB681B681A68FB681B6842F480421A60B1
:1037580088E04021F86800F003FD83E0BB6803F0CF
:103768004003002B70D07B6803F04003002B6BD024
:103778000121F86800F004FF1021F86800F07CFED1
:10378800FB6893F84130DBB2222B01D12D4B7B61D2
:10379800FB685B8D9BB2FF2B1ED9FB681B689B697E
:1037A8001B0CDBB203F00103DBB2012B03D1FB6876
:1037B80001221A8502E0FB68FF221A85FB68DB6C90
:1037C80099B2FB681B8DDAB27B6900934FF0807366
:1037D800F86800F01FFE11E0FB685B8D9AB2FB6889
:1037E8001A85FB68DB6C99B2FB681B8DDAB27B69C2
:1037F80000934FF00073F86800F00CFEFB685B8DD7
:103808009AB2FB681B8DD31A9AB2FB685A85FB687B
:1038180093F84130DBB2222B08D1FB681B681A6889
:10382800FB681B6842F400421A601BE0FB681B68D7
:103838001A68FB681B6842F480421A6012E000BFF5
:103848000020008000240080BB6803F02003002BC8
:1038580008D07B6803F02003002B03D0B968F86810
:1038680000F0FEF9FB68002283F840200023184688
:103878001837BD4680BD00BF80B588B000AFF8607E
:10388800B9607A60FB68DB6ABB610023FB61FB6897
:1038980093F84030012B01D10223C0E0FB680122DC
:1038A80083F84020BB6803F02003002B09D07B6815
:1038B80003F02003002B04D0B968F86800F098FAE8
:1038C800A8E0BB6803F01003002B00F095807B682C
:1038D80003F01003002B00F08F807B6803F4804313
:1038E800002B04D17B6803F40043002B7DD0FB68D8
:1038F800DB6B002B0CD07B6803F40043002B07D054
:10390800FB68DB6B1B685B68002B01D10123FB6143
:10391800FB689B6B002B0CD07B6803F48043002B67
:1039280007D0FB689B6B1B685B68002B01D10123E8
:10393800FB61FB69012B28D1FB6893F84130DBB2AE
:10394800282B08D1BB69B3F1007F04D1B968F868A6
:1039580000F0B2FB48E0FB6893F84130DBB2292B5A
:103968000ED1BB6913F5803F0AD0FB681B68102293
:10397800DA61F86800F00BFDF86800F015F933E03B
:10398800FB681B681022DA6134E0FB681B681022B0
:10399800DA61FB685B6C43F00402FB685A64FB68FD
:1039A80093F84130FB75BB69002B03D0BB69B3F1B9
:1039B800807F1FD1FB7D212B02D0FB7D292B03D1DA
:1039C800FB6821221A6308E0FB7D222B02D0FB7DD5
:1039D8002A2B02D1FB6822221A63FB685B6C19460A
:1039E800F86800F0BDFB05E004E0FB681B681022E6
:1039F800DA610FE000BF0DE0BB6803F00803002B9D
:103A080008D07B6803F00803002B03D0B968F86876
:103A180000F009F8FB68002283F8402000231846CC
:103A28002037BD4680BD80B584B000AF786039606E
:103A38007B6893F84130DBB203F02803282B6AD166
:103A48007B681B689B691B0CDBB203F00103FB73EB
:103A58007B681B689B691B0C9BB203F0FE03BB8150
:103A68007B681B689B689BB2C3F309037B817B68F7
:103A78001B68DB689BB203F0FE033B817B68DB6855
:103A8800022B38D17B89DB099AB2BB8953409BB2A0
:103A980003F00603002B1CD17B89BB817B689B6CE0
:103AA8005A1C7B689A647B689B6C022B3BD17B68B1
:103AB80000229A647B681B680822DA617B6800220E
:103AC80083F84020BA89FB7B19467868FFF75DFBCD
:103AD80029E03B89BB814FF40041786800F050FD34
:103AE8007B68002283F84020BA89FB7B19467868F6
:103AF800FFF74BFB17E04FF40041786800F040FDFA
:103B08007B68002283F84020BA89FB7B19467868D5
:103B1800FFF73BFB07E07B681B680822DA617B68DC
:103B2800002283F8402000BF1037BD4680BD80B515
:103B380082B000AF78607B68002283F842207B68FF
:103B480093F84130DBB2212B15D17B68202283F812
:103B580041207B6811221A637B6800225A63012185
:103B6800786800F00DFD7B68002283F840207868B3
:103B7800FFF7F7FA14E07B68202283F841207B687E
:103B880012221A637B6800225A630221786800F0C7
:103B9800F7FC7B68002283F840207868FFF7EBFA8F
:103BA80000BF0837BD4680BD80B584B000AF7860DF
:103BB8007B681B681B68FB607B68002283F84220D7
:103BC800FB6803F48043002B08D07B681B681A68E5
:103BD8007B681B6822F480421A600CE0FB6803F4DF
:103BE8000043002B07D07B681B681A687B681B683A
:103BF80022F400421A607B6893F84130DBB2292B2B
:103C080012D17B68282283F841207B6821221A631D
:103C18000121786800F0B4FC7B68002283F840201A
:103C28007868FDF727F817E07B6893F84130DBB236
:103C38002A2B11D17B68282283F841207B68222215
:103C48001A630221786800F09BFC7B68002283F8E5
:103C580040207868FCF79AFF00BF1037BD4680BD4A
:103C680080B586B000AF786039603B687B617B685F
:103C78001B682022DA617B6893F84130DBB2212B84
:103C880007D10121786800F07BFC7B6811221A6358
:103C98000CE07B6893F84130DBB2222B06D102217D
:103CA800786800F06DFC7B6812221A637B681B68D9
:103CB80059687B681A684C4B0B4053607B6800223C
:103CC8005A637B68494ADA627B6903F01003002B68
:103CD80009D07B681B681022DA617B685B6C43F053
:103CE80004027B685A647B6893F84130DBB2602B2E
:103CF8000AD17B6903F00403002B05D07B681B689D
:103D08005B6ADBB2FB60FB68786800F040FB7B68AD
:103D18005B6C3B617B6893F84130DBB2602B02D06F
:103D28003B69002B06D07B685B6C1946786800F00D
:103D380017FA54E07B6893F84130DBB2212B24D189
:103D48007B68202283F841207B6800221A637B6805
:103D580093F84230DBB2402B0BD17B68002283F80A
:103D680042207B68002283F840207868FFF725FA14
:103D780035E07B68002283F842207B68002283F8C4
:103D880040207868FFF7EDF929E07B6893F8413027
:103D9800DBB2222B23D17B68202283F841207B6869
:103DA80000221A637B6893F84230DBB2402B0BD1B8
:103DB8007B68002283F842207B68002283F8402039
:103DC8007868FFF704FA0AE07B68002283F842204B
:103DD8007B68002283F840207868FFF7CCF900BFA1
:103DE8001837BD4680BD00BF00E800FE0000FFFF99
:103DF80080B586B000AF786039607B681B681B6847
:103E08003B613B687B617B68DB6AFB607B6893F89E
:103E18004130FB727B681B682022DA61FB7A212B18
:103E280002D0FB7A292B08D148F20101786800F00A
:103E3800A7FB7B6821221A6319E0FB7A222B02D0A8
:103E4800FB7A2A2B08D148F20201786800F098FB27
:103E58007B6822221A630AE0FB7A282B07D148F2F2
:103E68000301786800F08CFB7B6800221A637B688A
:103E78001B685A687B681B6842F400425A607B687A
:103E88001B6859687B681A68894B0B4053607868CF
:103E980000F07DFA3B6903F48043002B13D07B6864
:103EA8001B681A687B681B6822F480421A607B686A
:103EB8009B6B002B1FD07B689B6B1B685B689AB25F
:103EC8007B685A8517E03B6903F40043002B12D046
:103ED8007B681B681A687B681B6822F400421A60BA
:103EE8007B68DB6B002B06D07B68DB6B1B685B6831
:103EF8009AB27B685A857B6903F00403002B20D0B3
:103F08007B6923F004037B617B681B685A6A7B68C2
:103F18005B6AD2B21A707B685B6A5A1C7B685A6209
:103F28007B681B8D002B0CD07B681B8D013B9AB2E4
:103F38007B681A857B685B8D9BB2013B9AB27B6874
:103F48005A857B685B8D9BB2002B05D07B685B6CC8
:103F580043F004027B685A647B6903F01003002B6A
:103F680049D03B6903F01003002B44D07B685B8D7C
:103F78009BB2002B28D17B6893F84130DBB2282B09
:103F880008D1FB68B3F1007F04D17969786800F043
:103F980093F830E07B6893F84130DBB2292B0ED1DF
:103FA800FB6813F5803F0AD07B681B681022DA6132
:103FB800786800F0ECF97868FFF7F6FD1BE07B689D
:103FC8001B681022DA6116E07B681B681022DA6130
:103FD8007B685B6C43F004027B685A64FB68002BC7
:103FE80003D0FB68B3F1807F05D17B685B6C194611
:103FF800786800F0B5F87B68002283F842207B6877
:1040080000225A637B685B6C002B10D07B685B6C6A
:104018001946786800F0A4F87B6893F84130DBB261
:10402800282B41D17969786800F046F83CE07B6834
:10403800DB6A13F5803F14D07868FFF7B5FD7B681D
:104048001C4ADA627B68202283F841207B680022C0
:104058001A637B68002283F840207868FFF7A3F88A
:1040680022E07B6893F84130DBB2222B0ED17B68CB
:10407800202283F841207B6800221A637B68002293
:1040880083F840207868FCF781FD0DE07B682022EA
:1040980083F841207B6800221A637B68002283F83A
:1040A80040207868FCF7E6FD00BF1837BD4680BDA4
:1040B80000E800FE0000FFFF80B582B000AF786026
:1040C80039607B68254ADA627B6800221A637B685C
:1040D800202283F841207B68002283F842207B68F5
:1040E80000225A633B6803F00403002B22D07B684C
:1040F8001B685A6A7B685B6AD2B21A707B685B6A13
:104108005A1C7B685A627B681B8D002B12D07B6817
:104118001B8D013B9AB27B681A857B685B8D9BB2CD
:10412800013B9AB27B685A857B685B6C43F004025A
:104138007B685A6448F20301786800F021FA7B68CA
:104148001B681022DA617B68002283F840207868B7
:10415800FFF729F800BF0837BD4680BD0000FFFF04
:1041680080B584B000AF786039607B6893F84130DF
:10417800FB737B68002283F842207B686D4ADA6211
:104188007B6800225A857B685A6C3B681A437B68B7
:104198005A64FB7B282B05D0FB7B292B02D0FB7BA9
:1041A8002A2B0BD10321786800F0EAF97B682822D2
:1041B80083F841207B68604A5A6330E048F2030183
:1041C800786800F0DDF9786800F0E1F87B6893F82A
:1041D8004130DBB2602B1FD07B68202283F841205E
:1041E8007B681B689B6903F02003202B14D17B6834
:1041F8001B689B6903F01003102B09D17B681B68AF
:104208001022DA617B685B6C43F004027B685A64B5
:104218007B681B682022DA617B6800225A637B680E
:104228001B6BBB607B689B6B002B39D0BB68112B69
:1042380002D0BB68212B33D17B681B681B6803F451
:104248008043B3F5804F07D17B681B681A687B6889
:104258001B6822F480421A607B689B6B1846FEF745
:10426800FAFB0346012B17D07B689B6B334A5A63D2
:104278007B68002283F840207B689B6B1846FEF71A
:10428800ACFB0346002B4DD07B689B6B5B6B7A685D
:10429800926B1046984745E0786800F051F841E085
:1042A8007B68DB6B002B39D0BB68122B02D0BB6854
:1042B800222B33D17B681B681B6803F40043B3F5DA
:1042C800004F07D17B681B681A687B681B6822F45B
:1042D80000421A607B68DB6B1846FEF7BCFB03469E
:1042E800012B17D07B68DB6B144A5A637B6800226A
:1042F80083F840207B68DB6B1846FEF76EFB0346AD
:10430800002B11D07B68DB6B5B6B7A68D26B104635
:10431800984709E0786800F013F805E0786800F03D
:104328000FF802E000BF00E000BF00BF1037BD4635
:1043380080BD00BF0000FFFF13320008DF43000804
:1043480080B582B000AF78607B6893F84130DBB20B
:10435800602B0ED17B68202283F841207B680022E5
:104368001A637B68002283F840207868FEF743FFD1
:1043780009E07B6800221A637B68002283F84020EA
:104388007868FEF72EFF00BF0837BD4680BD80B4B1
:1043980083B000AF78607B681B689B6903F00203F9
:1043A800022B03D17B681B6800229A627B681B681A
:1043B8009B6903F00103012B07D07B681B689A698E
:1043C8007B681B6842F001029A6100BF0C37BD464A
:1043D8005DF8047B704780B584B000AF78607B6877
:1043E8005B6AFB60FB689B6B002B03D0FB689B6BD5
:1043F80000225A63FB68DB6B002B03D0FB68DB6B86
:1044080000225A63F868FFF79BFF00BF1037BD46CC
:1044180080BD000080B487B000AFF8607B600B46B9
:104428007B8113467B727B89C3F309027B7A1B0469
:1044380003F47F031A437B681A433B6A134323F050
:1044480000437B61FB681B685A683B6A5B0D03F499
:104458008061084B0B43DB4302EA0301FB681B68DE
:104468007A690A435A6000BF1C37BD465DF8047B71
:10447800704700BFFF63FF0380B485B000AF78606A
:104488000B467B800023FB607B685B6B394A934259
:1044980032D07B685B6B384A93422DD07B685B6B6C
:1044A800364A934228D0B7F90230002B03DAFB686A
:1044B80043F0B803FB607B8803F00103002B03D0B3
:1044C800FB6843F0F203FB607B8803F00203002BD8
:1044D80003D0FB6843F0F403FB607B88102B03D107
:1044E800FB6843F09003FB607B88202B33D1FB688B
:1044F80043F02003FB602EE0B7F90230002B03DA0B
:10450800FB6843F0B803FB607B8803F00103002BD2
:1045180003D0FB6843F0F203FB607B8803F00203DF
:10452800002B03D0FB6843F0F403FB607B88102B5F
:1045380003D1FB6843F09003FB607B88202B03D1F9
:10454800FB6843F06003FB607B88402B03D1FB686A
:1045580043F04003FB607B681B6819687B681B6835
:10456800FA680A431A6000BF1437BD465DF8047B39
:10457800704700BF0534000881380008F935000885
:1045880080B485B000AF78600B467B800023FB6069
:104598007B8803F00103002B0FD0FB6843F0420334
:1045A800FB607B6893F84130DBB203F02803282BCB
:1045B80003D0FB6843F0B003FB607B8803F0020381
:1045C800002B0FD0FB6843F04403FB607B6893F833
:1045D8004130DBB203F02803282B03D0FB6843F0FB
:1045E800B003FB60B7F90230002B03DAFB6843F035
:1045F800B803FB607B88102B03D1FB6843F0900362
:10460800FB607B88202B03D1FB6843F02003FB6011
:104618007B88402B03D1FB6843F04003FB607B6839
:104628001B681968FB68DA437B681B680A401A60D4
:1046380000BF1437BD465DF8047B704780B483B073
:1046480000AF786039607B6893F84130DBB2202B8B
:1046580038D17B6893F84030012B01D1022332E036
:104668007B68012283F840207B68242283F841205C
:104678007B681B681A687B681B6822F001021A6055
:104688007B681B681A687B681B6822F480521A6072
:104698007B681B6819687B681B683A680A431A605C
:1046A8007B681B681A687B681B6842F001021A6005
:1046B8007B68202283F841207B68002283F8402011
:1046C800002300E0022318460C37BD465DF8047B42
:1046D800704780B485B000AF786039607B6893F824
:1046E8004130DBB2202B39D17B6893F84030012B65
:1046F80001D1022333E07B68012283F840207B68E4
:10470800242283F841207B681B681A687B681B6831
:1047180022F001021A607B681B681B68FB60FB685B
:1047280023F47063FB603B681B02FA681343FB6069
:104738007B681B68FA681A607B681B681A687B6864
:104748001B6842F001021A607B68202283F841202E
:104758007B68002283F84020002300E002231846EB
:104768001437BD465DF8047B7047000080B5ADF591
:10477800007D00AF07F50073A3F5FE73186007F519
:104788000073A3F5FE731B68002B02D1012301F00F
:1047980023B807F50073A3F5FE731B681B6803F0C5
:1047A8000103002B00F07D81BC4B5B6803F00C0318
:1047B800042B0CD0B94B5B6803F00C03082B5CD1BD
:1047C800B64B5B6803F48033B3F5803F55D14FF4A3
:1047D8000033C7F8F031D7F8F03193FAA3F3C7F8EC
:1047E800EC31D7F8EC31B3FA83F3DBB25B09DBB217
:1047F80043F00103DBB2012B02D1A84B1B6815E083
:104808004FF40033C7F8E831D7F8E83193FAA3F347
:10481800C7F8E4314FF40033C7F8E031D7F8E03196
:1048280093FAA3F3C7F8DC319C4B5B6A4FF4003270
:10483800C7F8D821D7F8D82192FAA2F2C7F8D4211C
:10484800D7F8D421B2FA82F2D2B242F02002D2B220
:1048580002F01F02012101FA02F21340002B00F0BE
:104868001F8107F50073A3F5FE731B685B68002BB7
:1048780040F01681012300F0AFBF07F50073A3F5E0
:10488800FE731B685B68B3F5803F06D1834B1B68DA
:10489800824A43F48033136036E007F50073A3F5CA
:1048A800FE731B685B68002B0CD17C4B1B687B4A32
:1048B80023F480331360794B1B68784A23F48023F0
:1048C800136021E007F50073A3F5FE731B685B68AE
:1048D800B3F5A02F0CD1714B1B68704A43F48023A9
:1048E80013606E4B1B686D4A43F4803313600BE012
:1048F8006A4B1B68694A23F480331360674B1B6853
:10490800664A23F480231360644BDB6A23F00F02AA
:1049180007F50073A3F5FE731B689B685F49134393
:10492800CB6207F50073A3F5FE731B685B68002B69
:1049380059D0FCF731FBC7F8F8010AE0FCF72CFB6B
:104948000246D7F8F831D31A642B02D9032300F0B2
:1049580043BF4FF40033C7F8D031D7F8D03193FABA
:10496800A3F3C7F8CC31D7F8CC31B3FA83F3DBB271
:104978005B09DBB243F00103DBB2012B02D1474BE9
:104988001B6815E04FF40033C7F8C831D7F8C831B1
:1049980093FAA3F3C7F8C4314FF40033C7F8C03112
:1049A800D7F8C03193FAA3F3C7F8BC313B4B5B6A25
:1049B8004FF40032C7F8B821D7F8B82192FAA2F21A
:1049C800C7F8B421D7F8B421B2FA82F2D2B242F0D1
:1049D8002002D2B202F01F02012101FA02F21340B2
:1049E800002BABD05DE0FCF7D7FAC7F8F8010AE076
:1049F800FCF7D2FA0246D7F8F831D31A642B02D959
:104A0800032300F0E9BE4FF40033C7F8B031D7F8FC
:104A1800B03193FAA3F3C7F8AC31D7F8AC31B3FA95
:104A280083F3DBB25B09DBB243F00103DBB2012B9A
:104A380002D11A4B1B6815E04FF40033C7F8A831B0
:104A4800D7F8A83193FAA3F3C7F8A4314FF4003389
:104A5800C7F8A031D7F8A03193FAA3F3C7F89C316F
:104A68000E4B5B6A4FF40032C7F89821D7F89821AB
:104A780092FAA2F2C7F89421D7F89421B2FA82F2F6
:104A8800D2B242F02002D2B202F01F02012101FA92
:104A980002F21340002BABD103E000BF001002402C
:104AA80000BF07F50073A3F5FE731B681B6803F0CE
:104AB8000203002B00F07D81A64B5B6803F00C031A
:104AC800002B0BD0A34B5B6803F00C03082B72D1AF
:104AD800A04B5B6803F48033002B6CD10223C7F82A
:104AE8009031D7F8903193FAA3F3C7F88C31D7F8FF
:104AF8008C31B3FA83F3DBB25B09DBB243F0010319
:104B0800DBB2012B02D1934B1B6813E00223C7F8D9
:104B18008831D7F8883193FAA3F3C7F88431022390
:104B2800C7F88031D7F8803193FAA3F3C7F87C31FE
:104B3800884B5B6A0222C7F87821D7F8782192FA65
:104B4800A2F2C7F87421D7F87421B2FA82F2D2B26D
:104B580042F02002D2B202F01F02012101FA02F251
:104B68001340002B0AD007F50073A3F5FE731B68EA
:104B78001B69012B02D0012300F02EBE754B1B6868
:104B880023F0F80207F50073A3F5FE731B685B6951
:104B9800F821C7F87011D7F8701191FAA1F1C7F888
:104BA8006C11D7F86C11B1FA81F1C9B28B4069491F
:104BB80013430B60FDE007F50073A3F5FE731B6854
:104BC8001B69002B00F088800123C7F86831D7F8EB
:104BD800683193FAA3F3C7F86431D7F86431B3FAAC
:104BE80083F3DBB203F1845303F584139B001A4665
:104BF80001231360FCF7D0F9C7F8F8010AE0FCF7C5
:104C0800CBF90246D7F8F831D31A022B02D903237D
:104C180000F0E2BD0223C7F86031D7F8603193FA9B
:104C2800A3F3C7F85C31D7F85C31B3FA83F3DBB28E
:104C38005B09DBB243F00103DBB2012B02D1454B28
:104C48001B6813E00223C7F85831D7F8583193FA94
:104C5800A3F3C7F854310223C7F85031D7F85031BD
:104C680093FAA3F3C7F84C313A4B5B6A0222C7F8B0
:104C78004821D7F8482192FAA2F2C7F84421D7F878
:104C88004421B2FA82F2D2B242F02002D2B202F049
:104C98001F02012101FA02F21340002BAFD02D4B65
:104CA8001B6823F0F80207F50073A3F5FE731B6871
:104CB8005B69F821C7F84011D7F8401191FAA1F1C2
:104CC800C7F83C11D7F83C11B1FA81F1C9B28B4051
:104CD800204913430B606CE00123C7F83831D7F83B
:104CE800383193FAA3F3C7F83431D7F83431B3FA2B
:104CF80083F3DBB203F1845303F584139B001A4654
:104D080000231360FCF748F9C7F8F8010AE0FCF73C
:104D180043F90246D7F8F831D31A022B02D90323F4
:104D280000F05ABD0223C7F83031D7F8303193FA72
:104D3800A3F3C7F82C31D7F82C31B3FA83F3DBB2DD
:104D48005B09DBB243F00103DBB2012B04D1014B59
:104D58001B6815E0001002400223C7F82831D7F875
:104D6800283193FAA3F3C7F824310223C7F8203176
:104D7800D7F8203193FAA3F3C7F81C31C84B5B6A04
:104D88000222C7F81821D7F8182192FAA2F2C7F818
:104D98001421D7F81421B2FA82F2D2B242F02002DA
:104DA800D2B202F01F02012101FA02F21340002BD5
:104DB800ADD107F50073A3F5FE731B681B6803F0FC
:104DC8000803002B00F0108107F50073A3F5FE73AC
:104DD8001B689B69002B79D00123C7F81031D7F8DD
:104DE800103193FAA3F3C7F80C31D7F80C31B3FAA2
:104DF80083F3DBB21A46AB4B13449B001A460123DC
:104E08001360FCF7C9F8C7F8F8010AE0FCF7C4F822
:104E18000246D7F8F831D31A022B02D9032300F03F
:104E2800DBBC0223C7F80831D7F8083193FAA3F39B
:104E3800C7F8043107F50073A3F5807302221A60DE
:104E480007F50073A3F580731B6893FAA3F207F5BF
:104E58000073A3F582731A6007F50073A3F58473D2
:104E680002221A6007F50073A3F584731B6893FA8E
:104E7800A3F207F50073A3F586731A60884B5A6A84
:104E880007F50073A3F588730221196007F500730D
:104E9800A3F588731B6893FAA3F107F50073A3F5CC
:104EA8008A73196007F50073A3F58A731B68B3FA50
:104EB80083F3DBB243F06003DBB203F01F0301218D
:104EC80001FA03F31340002BA0D08DE007F500731F
:104ED800A3F58C7301221A6007F50073A3F58C7390
:104EE8001B6893FAA3F207F50073A3F58E731A6093
:104EF80007F50073A3F58E731B68B3FA83F3DBB26F
:104F08001A46684B13449B001A4600231360FCF7AB
:104F180043F8C7F8F8010AE0FCF73EF80246D7F86C
:104F2800F831D31A022B02D9032300F055BC07F538
:104F38000073A3F5907302221A6007F50073A3F5B6
:104F480090731B6893FAA3F207F50073A3F59273A5
:104F58001A6007F50073A3F5947302221A6007F527
:104F68000073A3F594731B6893FAA3F207F5007313
:104F7800A3F596731A6007F50073A3F598730222D8
:104F88001A6007F50073A3F598731B6893FAA3F2E8
:104F980007F50073A3F59A731A60414B5A6A07F52F
:104FA8000073A3F59C730221196007F50073A3F53C
:104FB8009C731B6893FAA3F107F50073A3F59E731E
:104FC800196007F50073A3F59E731B68B3FA83F3A2
:104FD800DBB243F06003DBB203F01F03012101FAE7
:104FE80003F31340002B97D107F50073A3F5FE7365
:104FF8001B681B6803F00403002B00F0A181002349
:1050080087F8FF31264BDB6903F08053002B16D15C
:10501800234BDB69224A43F08053D361204BDB6981
:1050280003F0805207F50073A3F5FC731A6007F5C7
:105038000073A3F5FC731B68012387F8FF311A4B33
:105048001B6803F48073002B1AD1174B1B68164A90
:1050580043F480731360FBF79FFFC7F8F80109E07A
:10506800FBF79AFF0246D7F8F831D31A642B01D917
:105078000323B1E30C4B1B6803F48073002BEFD0C0
:1050880007F50073A3F5FE731B68DB68012B0DD1D0
:10509800034B1B6A024A43F0010313623CE000BF62
:1050A80000100240208190100070004007F5007346
:1050B800A3F5FE731B68DB68002B0CD1C14B1B6A80
:1050C800C04A23F001031362BE4B1B6ABD4A23F09A
:1050D8000403136220E007F50073A3F5FE731B6851
:1050E800DB68052B0CD1B74B1B6AB64A43F00403A7
:1050F8001362B44B1B6AB34A43F0010313620BE01B
:10510800B04B1B6AAF4A23F001031362AD4B1B6A15
:10511800AC4A23F00403136207F50073A3F5FE738A
:105128001B68DB68002B00F08180FBF735FFC7F8B0
:10513800F8010BE0FBF730FF0246D7F8F831D31A35
:1051480041F28832934201D9032345E307F50073FE
:10515800A3F5A07302221A6007F50073A3F5A073E4
:105168001B6893FAA3F207F50073A3F5A2731A60FC
:1051780007F50073A3F5A47302221A6007F50073FC
:10518800A3F5A4731B6893FAA3F207F50073A3F5BC
:10519800A6731A6007F50073A3F5A6731B68B3FA24
:1051A80083F3DBB25B09DBB243F00203DBB2022B11
:1051B80002D1844B1B6A13E007F50073A3F5A873AB
:1051C80002221A6007F50073A3F5A8731B6893FA07
:1051D800A3F207F50073A3F5AA731A60794B5B6A0B
:1051E80007F50072A2F5AC720221116007F5007292
:1051F800A2F5AC72126892FAA2F107F50072A2F554
:10520800AE72116007F50072A2F5AE721268B2FABA
:1052180082F2D2B242F04002D2B202F01F02012161
:1052280001FA02F21340002B84D07FE0FBF7B4FEB2
:10523800C7F8F8010BE0FBF7AFFE0246D7F8F831E4
:10524800D31A41F28832934201D90323C4E207F505
:105258000073A3F5B07302221A6007F50073A3F573
:10526800B0731B6893FAA3F207F50073A3F5B27342
:105278001A6007F50073A3F5B47302221A6007F5E4
:105288000073A3F5B4731B6893FAA3F207F50073D0
:10529800A3F5B6731A6007F50073A3F5B6731B6818
:1052A800B3FA83F3DBB25B09DBB243F00203DBB290
:1052B800022B02D1434B1B6A13E007F50073A3F5D9
:1052C800B87302221A6007F50073A3F5B8731B6858
:1052D80093FAA3F207F50073A3F5BA731A60394B72
:1052E8005B6A07F50072A2F5BC720221116007F52E
:1052F8000072A2F5BC72126892FAA2F107F5007268
:10530800A2F5BE72116007F50072A2F5BE721268AE
:10531800B2FA82F2D2B242F04002D2B202F01F02D6
:10532800012101FA02F21340002B84D197F8FF31D2
:10533800012B05D1234BDB69224A23F08053D3612B
:1053480007F50073A3F5FE731B68DB69002B00F0FB
:1053580042821C4B5B6803F00C03082B00F013829D
:1053680007F50073A3F5FE731B68DB69022B40F099
:10537800628107F50073A3F5C0734FF080721A605D
:1053880007F50073A3F5C0731B6893FAA3F207F53A
:105398000073A3F5C2731A6007F50073A3F5C2730F
:1053A8001B68B3FA83F3DBB203F1845303F5841368
:1053B8009B001A4600231360FBF7EEFDC7F8F801BF
:1053C8000CE000BF00100240FBF7E6FD0246D7F8EC
:1053D800F831D31A022B01D90323FDE107F5007335
:1053E800A3F5C4734FF000721A6007F50073A3F5B4
:1053F800C4731B6893FAA3F207F50073A3F5C67389
:105408001A6007F50073A3F5C6731B68B3FA83F334
:10541800DBB25B09DBB243F00103DBB2012B02D143
:10542800B04B1B6827E007F50073A3F5C8734FF06E
:1054380000721A6007F50073A3F5C8731B6893FA26
:10544800A3F207F50073A3F5CA731A6007F5007392
:10545800A3F5CC734FF000721A6007F50073A3F53B
:10546800CC731B6893FAA3F207F50073A3F5CE7308
:105478001A609C4B5B6A07F50072A2F5D0724FF078
:105488000071116007F50072A2F5D072126892FAE5
:10549800A2F107F50072A2F5D272116007F5007249
:1054A800A2F5D2721268B2FA82F2D2B242F02002A7
:1054B800D2B202F01F02012101FA02F21340002BBE
:1054C80082D1884B5B6823F4741207F50073A3F547
:1054D800FE731B68596A07F50073A3F5FE731B6812
:1054E8001B6A0B437F4913434B6007F50073A3F511
:1054F800D4734FF080721A6007F50073A3F5D47364
:105508001B6893FAA3F207F50073A3F5D6731A6024
:1055180007F50073A3F5D6731B68B3FA83F3DBB200
:1055280003F1845303F584139B001A460123136087
:10553800FBF732FDC7F8F80109E0FBF72DFD02463D
:10554800D7F8F831D31A022B01D9032344E107F520
:105558000073A3F5D8734FF000721A6007F5007353
:10556800A3F5D8731B6893FAA3F207F50073A3F5A4
:10557800DA731A6007F50073A3F5DA731B68B3FAD8
:1055880083F3DBB25B09DBB243F00103DBB2012B2F
:1055980002D1544B1B6827E007F50073A3F5DC73B1
:1055A8004FF000721A6007F50073A3F5DC731B68EF
:1055B80093FAA3F207F50073A3F5DE731A6007F5F3
:1055C8000073A3F5E0734FF000721A6007F50073DB
:1055D800A3F5E0731B6893FAA3F207F50073A3F52C
:1055E800E2731A603F4B5B6A07F50072A2F5E4723A
:1055F8004FF00071116007F50072A2F5E4721268AD
:1056080092FAA2F107F50072A2F5E672116007F5A9
:105618000072A2F5E6721268B2FA82F2D2B242F0D1
:105628002002D2B202F01F02012101FA02F2134055
:10563800002B82D0CFE007F50073A3F5E8734FF095
:1056480080721A6007F50073A3F5E8731B6893FA74
:10565800A3F207F50073A3F5EA731A6007F5007360
:10566800A3F5EA731B68B3FA83F3DBB203F184533F
:1056780003F584139B001A4600231360FBF78CFC88
:10568800C7F8F80109E0FBF787FC0246D7F8F831BC
:10569800D31A022B01D903239EE007F50073A3F563
:1056A800EC734FF000721A6007F50073A3F5EC7302
:1056B8001B6893FAA3F207F50073A3F5EE731A605B
:1056C80007F50073A3F5EE731B68B3FA83F3DBB237
:1056D8005B09DBB243F00103DBB2012B04D1014BC0
:1056E8001B6829E00010024007F50073A3F5F0736A
:1056F8004FF000721A6007F50073A3F5F0731B688A
:1057080093FAA3F207F50073A3F5F2731A6007F58D
:105718000073A3F5F4734FF000721A6007F5007375
:10572800A3F5F4731B6893FAA3F207F50073A3F5C6
:10573800F6731A602B4B5B6A07F50072A2F5F872D4
:105748004FF00071116007F50072A2F5F872126847
:1057580092FAA2F107F50072A2F5FA72116007F544
:105768000072A2F5FA721268B2FA82F2D2B242F06C
:105778002002D2B202F01F02012101FA02F2134004
:10578800002B80D127E007F50073A3F5FE731B6893
:10579800DB69012B01D101231EE0124B5B68C7F8BE
:1057A800F431D7F8F43103F4803207F50073A3F528
:1057B800FE731B681B6A9A420BD1D7F8F43103F4C5
:1057C800701207F50073A3F5FE731B685B6A9A42B3
:1057D80001D0012300E00023184607F50077BD46F5
:1057E80080BD00BF0010024080B59EB000AF786059
:1057F800396000237B677B68002B01D1012362E1BC
:10580800904B1B6803F007033A689A4210D98D4BF6
:105818001B6823F007028B493B6813430B60894BD5
:105828001B6803F007033A689A4201D001234AE152
:105838007B681B6803F00203002B08D0824B5B686F
:1058480023F0F0027B689B687F4913434B607B68B9
:105858001B6803F00103002B00F0DC807B685B68A9
:10586800012B3CD14FF400333B673B6F93FAA3F312
:10587800FB66FB6EB3FA83F3DBB25B09DBB243F082
:105888000103DBB2012B02D16F4B1B680FE04FF411
:105898000033BB66BB6E93FAA3F37B664FF4003309
:1058A8003B663B6E93FAA3F3FB65674B5B6A4FF469
:1058B8000032BA65BA6D92FAA2F27A657A6DB2FAD6
:1058C80082F2D2B242F02002D2B202F01F020121CB
:1058D80001FA02F21340002B7BD10123F3E07B682D
:1058E8005B68022B3CD14FF000733B653B6D93FA2C
:1058F800A3F3FB64FB6CB3FA83F3DBB25B09DBB2A3
:1059080043F00103DBB2012B02D14F4B1B680FE0C0
:105918004FF00073BB64BB6C93FAA3F37B644FF046
:1059280000733B643B6C93FAA3F3FB63464B5B6ADF
:105938004FF00072BA63BA6B92FAA2F27A637A6B8A
:10594800B2FA82F2D2B242F02002D2B202F01F02C0
:10595800012101FA02F21340002B3AD10123B2E0EF
:1059680002233B633B6B93FAA3F3FB62FB6AB3FA34
:1059780083F3DBB25B09DBB243F00103DBB2012B3B
:1059880002D1314B1B680DE00223BB62BB6A93FA5C
:10599800A3F37B6202233B623B6A93FAA3F3FB61A6
:1059A800294B5B6A0222BA61BA6992FAA2F27A6159
:1059B8007A69B2FA82F2D2B242F02002D2B202F08E
:1059C8001F02012101FA02F21340002B01D1012329
:1059D80079E01D4B5B6823F003027B685B681A491A
:1059E80013434B60FBF7D8FA78670AE0FBF7D4FA61
:1059F80002467B6FD31A41F28832934201D90323BE
:105A080061E0114B5B6803F00C027B685B689B00EC
:105A18009A42EBD10B4B1B6803F007033A689A4292
:105A280014D2084B1B6823F0070206493B6813434E
:105A38000B60044B1B6803F007033A689A4205D0D1
:105A4800012340E000200240001002407B681B68F0
:105A580003F00403002B08D01D4B5B6823F4E062BD
:105A68007B68DB681A4913434B607B681B6803F04B
:105A78000803002B09D0164B5B6823F460527B683F
:105A88001B69DB00124913434B6000F029F80146FB
:105A98000F4B5B6803F0F003F0223A613A6992FA1F
:105AA800A2F2FA60FA68B2FA82F2D2B2D340094A94
:105AB800D35C21FA03F3084A1360084B1B681846A5
:105AC800FBF726FA002318467837BD4680BD00BF8D
